:030000000208975C
:0C089700787FE4F6D8FD75810A02087134
:0308BF004C530097
:0C08A300758920759850758DFDD28E224D
:0808AF008F993099FDC29922D6
:0708B7003098FDAF99C298D3
:0108BE002217
:06082D008B088A09890A0C
:10083300E4FDFCAB08AA09A90A8D828C8312080087
:0D084300FF600A1208AF0DBD00010C80E639
:010850002285
:100886007F0D1208AF7F0A7E001208517F0A020808
:01089600AFB2
:10085100E4FDFCC3ED9FEC9E5015E4FBFA0BBB00DD
:0F086100010AEB64644A70F50DBD00010C80E4E0
:010870002265
:100871001208A320A70EC2A07BFF7A0879BF120835
:050881002D30A7FD224F
:10080000BB010CE58229F582E5833AF583E02250AD
:1008100006E92582F8E622BBFE06E92582F8E222F7
:0D082000E58229F582E5833AF583E4932211
:00000001FF
