:080AA100495220544553540052
:0609F800D2937F037E0094
:1009FE00E4FDFCC3ED9FEC9E5015E4FBFA0BBB002F
:0F0A0E00010AEB64644A70F50DBD00010C80E431
:010A1D0022B6
:100A7800E4FFFEE4FDFC0DBD00010CED64024C70CA
:0C0A8800F50FBF00010EEF64374E70E761
:010A9400223F
:03000300020908E7
:10090800C0E0C0D075D000C002C003C004C005C09C
:0309180006C0070F
:10091B00750F00E4FB120A780BBB08F97B00A2B23F
:10092B009200E50F25E0F50FA200E433420F120A07
:10093B00780BBB06E9E50FC394004009E50F94174C
:0C094B005003850F0D7FBC7E021209FED8
:10095700D007D006D005D004D003D002D0D0D0E045
:01096700325D
:100A1E007F02120A3C7F28120A3C7F0E120A3C7F8C
:0E0A2E0006120A3C7F01120A3C7F0C020A3CB1
:100A3C00A907E954F0F590C2921209F8C293E9C4DF
:0E0A4C0054F0F590C292D2931209FEC293228A
:100A5A00A907E954F0F590D2921209F8C293E9C4B1
:0E0A6A0054F0F590D292D2931209FEC293225C
:0609B1008B088A09890A87
:1009B700E4F50BF50CAB08AA09A90A850C82850B8F
:1009C70083120886602AE50C6410450B70057FC00A
:1009D700120A3CAB08AA09A90A850C82850B831267
:1009E7000886FF120A5A050CE50C70C9050B80C56D
:0109F70022DD
:04096800AB07AA0629
:10096C007C007D0A1208B38C108D117C007D0AAFBF
:10097C0003AE021208B3AA06AB077C007D0A12086C
:10098C00B38D82AE02AF037C007D0A1208B3EF2454
:10099C0030FF120A5AE5822430FF120A5AE511245C
:0509AC0030FF020A5AB1
:10080000120A1E7F83120A3C7BFF7A0A79A1120921
:10081000B17FC87E001209FED2AFD2A8E50DB401A7
:1008200005B2A0E4F50DE50DB40205B2A1E4F50DA5
:10083000E50DB40305B2A2E4F50DE50DB40405B26F
:10084000A3E4F50DE50DB40505B2A4E4F50DE50D41
:10085000B40605B2A5E4F50DE50DB40705B2A6E4AE
:10086000F50DE50DB40805B2A7E4F50DE50D640935
:1008700070AAD2A7D2A6D2A5D2A4D2A3D2A2D2A124
:06088000D2A0F50D8096E8
:03000000020A955C
:0C0A9500787FE4F6D8FD7581200208008F
:10088600BB010CE58229F582E5833AF583E0225027
:1008960006E92582F8E622BBFE06E92582F8E22271
:0D08A600E58229F582E5833AF583E493228B
:1008B300BC000BBE0029EF8DF084FFADF022E4CC29
:1008C300F875F008EF2FFFEE33FEEC33FCEE9DECF2
:1008D300984005FCEE9DFE0FD5F0E9E4CEFD22ED38
:1008E300F8F5F0EE8420D21CFEADF075F008EF2F82
:1008F300FFED33FD4007985006D5F0F222C398FD73
:050903000FD5F0EA220F
:00000001FF
