:0E09B1005452414943204143205445535400C1
:06091200D2937F037E007A
:10091800E4FDFCC3ED9FEC9E5015E4FBFA0BBB0015
:0F092800010AEB64644A70F50DBD00010C80E418
:01093700229D
:100957007F021209757F281209757F0E1209757FAC
:0E096700061209757F011209757F0C020975D1
:10097500A907E954F0F590C292120912C293E9C48D
:0E09850054F0F590C292D293120918C2932238
:10099300A907E954F0F590D292120912C293E9C45F
:0E09A30054F0F590D292D293120918C293220A
:0608CB008B088A09890A6E
:1008D100E4F50BF50CAB08AA09A90A850C82850B76
:1008E10083120800602AE50C6410450B70057FC077
:1008F100120975AB08AA09A90A850C82850B831216
:100901000800FF120993050CE50C70C9050B80C5A1
:0109110022C3
:04088200AB07AA0610
:100886007C007D0A12082D8C0D8D0E7C007D0AAF32
:1008960003AE0212082DAA06AB077C007D0A1208D9
:1008A6002D8D82AE02AF037C007D0A12082DEF2447
:1008B60030FF120993E5822430FF120993E50E24D6
:0508C60030FF02099360
:100938001209577F831209757BFF7A0979B112086A
:0F094800CB7FC87E0012091820A7FDB2A080F94E
:030000000209BF33
:0C09BF00787FE4F6D8FD75810E0209383F
:10080000BB010CE58229F582E5833AF583E02250AD
:1008100006E92582F8E622BBFE06E92582F8E222F7
:0D082000E58229F582E5833AF583E4932211
:10082D00BC000BBE0029EF8DF084FFADF022E4CCAF
:10083D00F875F008EF2FFFEE33FEEC33FCEE9DEC78
:10084D00984005FCEE9DFE0FD5F0E9E4CEFD22EDBE
:10085D00F8F5F0EE8420D21CFEADF075F008EF2F08
:10086D00FFED33FD4007985006D5F0F222C398FDF9
:05087D000FD5F0EA2296
:00000001FF
