:1009A60057454C434F4D4500524F424F20465257F4
:1009B6004400524F424F204241434B00524F424F58
:1009C600204C45465400524F424F20524947485406
:0B09D60000524F424F2053544F50007E
:0409E1007FC87E004D
:1009E500E4FDFCC3ED9FEC9E5015E4FBFA0BBB0048
:0F09F500010AEB64644A70F50DBD00010C80E44B
:010A040022CF
:100A4D007F02120A057F28120A057F0E120A057F02
:0E0A5D0006120A057F01120A057F0C020A0527
:100A0500A907E954F0F590C292D2937F037E0012B4
:100A150009E5C293E9C454F0F590C292D293120944
:040A2500E5C2932271
:100A2900A907E954F0F590D292D2937F037E001280
:100A390009E5C293E9C454F0F590D292D293120910
:040A4900E5C293224D
:06095F008B088A09890AD9
:10096500E4F50BF50CAB08AA09A90A850C82850BE1
:1009750083120894602AE50C6410450B70057FC04E
:10098500120A05AB08AA09A90A850C82850B8312F0
:100995000894FF120A29050CE50C70C9050B80C5E2
:0109A500222F
:04091600AB07AA067B
:10091A007C007D0A1208C18C0D8D0E7C007D0AAF09
:10092A0003AE021208C1AA06AB077C007D0A1208B0
:10093A00C18D82AE02AF037C007D0A1208C1EF248A
:10094A0030FF120A29E5822430FF120A29E50E2413
:05095A0030FF020A2934
:10080000120A4D7F85120A057BFF7A0979A6120923
:100810005FE5B0B4FE167F01120A057BFF7A097905
:10082000AE12095F1209E175A0D780E5E5B0B4FD0D
:10083000167F01120A057BFF7A0979B812095F1247
:1008400009E175A0EB80CAE5B0B4FB167F01120A7E
:10085000057BFF7A0979C212095F1209E175A0F5DB
:1008600080AFE5B0B4F7167F01120A057BFF7A0965
:1008700079CC12095F1209E175A0D280947F011230
:100880000A057BFF7A0979D712095F1209E175A081
:04089000FF0208114A
:03000000020A6B86
:0C0A6B00787FE4F6D8FD75810E020800CB
:10089400BB010CE58229F582E5833AF583E0225019
:1008A40006E92582F8E622BBFE06E92582F8E22263
:0D08B400E58229F582E5833AF583E493227D
:1008C100BC000BBE0029EF8DF084FFADF022E4CC1B
:1008D100F875F008EF2FFFEE33FEEC33FCEE9DECE4
:1008E100984005FCEE9DFE0FD5F0E9E4CEFD22ED2A
:1008F100F8F5F0EE8420D21CFEADF075F008EF2F74
:10090100FFED33FD4007985006D5F0F222C398FD64
:050911000FD5F0EA2201
:00000001FF
