:1009D0004C44522054455354004C445220444554F6
:0609E000454354454400AC
:06095000D2937F037E003C
:10095600E4FDFCC3ED9FEC9E5015E4FBFA0BBB00D7
:0F096600010AEB64644A70F50DBD00010C80E4DA
:01097500225F
:100976007F021209947F281209947F0E1209947F30
:0E098600061209947F011209947F0C02099455
:10099400A907E954F0F590C292120950C293E9C430
:0E09A40054F0F590C292D293120956C29322DB
:1009B200A907E954F0F590D292120950C293E9C402
:0E09C20054F0F590D292D293120956C29322AD
:0608CB008B088A09890A6E
:1008D100E4F50BF50CAB08AA09A90A850C82850B76
:1008E10083120800602AE50C6410450B70057FC077
:1008F100120994AB08AA09A90A850C82850B8312F7
:100901000800FF1209B2050CE50C70C9050B80C582
:0109110022C3
:04088200AB07AA0610
:100886007C007D0A12082D8C0D8D0E7C007D0AAF32
:1008960003AE0212082DAA06AB077C007D0A1208D9
:1008A6002D8D82AE02AF037C007D0A12082DEF2447
:1008B60030FF1209B2E5822430FF1209B2E50E2498
:0508C60030FF0209B241
:100912001209767F821209947BFF7A0979D0120834
:10092200CB7FC87E00120956C2A77F01120994200C
:10093200A0F6D2A77F011209947BFF7A0979D91216
:0E09420008CB7FC87E0012095620A0DC80FB87
:030000000209E60C
:0C09E600787FE4F6D8FD75810E0209123E
:10080000BB010CE58229F582E5833AF583E02250AD
:1008100006E92582F8E622BBFE06E92582F8E222F7
:0D082000E58229F582E5833AF583E4932211
:10082D00BC000BBE0029EF8DF084FFADF022E4CCAF
:10083D00F875F008EF2FFFEE33FEEC33FCEE9DEC78
:10084D00984005FCEE9DFE0FD5F0E9E4CEFD22EDBE
:10085D00F8F5F0EE8420D21CFEADF075F008EF2F08
:10086D00FFED33FD4007985006D5F0F222C398FDF9
:05087D000FD5F0EA2296
:00000001FF
