:100AEA00454550524F4D20544553540057454C43A9
:040AFA004F4D450017
:0609C700D2937F037E00C5
:1009CD00E4FDFCC3ED9FEC9E5015E4FBFA0BBB0060
:0F09DD00010AEB64644A70F50DBD00010C80E463
:0109EC0022E8
:100A77007F02120A957F28120A957F0E120A957F28
:0E0A870006120A957F01120A957F0C020A954D
:100A9500A907E954F0F590C2921209C7C293E9C4B7
:0E0AA50054F0F590C292D2931209CDC2932262
:100AB300A907E954F0F590D2921209C7C293E9C489
:0E0AC30054F0F590D292D2931209CDC2932234
:060980008B218A2289236D
:10098600E4F524F525AB21AA22A923852582852411
:1009960083120800602AE5256410452470057FC08F
:1009A600120A95AB21AA22A92385258285248312C2
:1009B6000800FF120AB30525E52570C9052480C580
:0109C600220E
:0408EE00AB07AA06A4
:1008F2007C007D0A12082D8C268D277C007D0AAF94
:1009020003AE0212082DAA06AB077C007D0A12086C
:100912002D8D82AE02AF037C007D0A12082DEF24DA
:1009220030FF120AB3E5822430FF120AB3E527240E
:0509320030FF020AB3D2
:0C0B0F00758920759850758DFDD28E22DE
:080B3D008F993099FDC2992245
:070B45003098FDAF99C29842
:010B4C002286
:060A13008B218A228923D9
:100A1900E4FDFCAB21AA22A9238D828C8312080054
:0D0A2900FF600A120B3D0DBD00010C80E6C0
:010A3600229D
:100AFE007F0D120B3D7F0A7E00120A377F0A020B12
:010B0E003DA9
:100A3700E4FDFCC3ED9FEC9E5015E4FBFA0BBB00F5
:0F0A4700010AEB64644A70F50DBD00010C80E4F8
:010A5600227D
:100AD1008F288D29120B277FA01209EDAF2812094B
:090AE100EDAF291209ED020B3200
:020937008F2A05
:10093900120B277FA01209EDAF2A1209ED00120B45
:10094900277FA11209EDE4F52BD2B6FFC2B700004B
:10095900D2B7A2B6E433422BEFD394065006E52B67
:1009690025E0F52B0FBF08E4C2B77F647E00120AA9
:0609790057120B32AF2BF8
:01097F002255
:0B0B2700D2B7D2B60000C2B6C2B7229F
:1009ED00E4FEEF54807004C2B68002D2B6D2B700D6
:1009FD0000C2B7EF25E0FF0EBE08E7D2B60000D269
:050A0D00B70000C2B7B4
:010A120022C1
:0B0B3200C2B6D2B70000D2B6C2B72294
:100A5700E4FDFCD3ED9FEC9E5015E4FBFA0BBB00C5
:0F0A6700010AEB64FB4A70F50DBD00010C80E441
:010A7600225D
:10088200120A777F83120A957BFF7A0A79EA1209A4
:1008920080120B0F7BFF7A0A79F6120A13120B45AC
:1008A2008F20E520640D702C7F01120A957B007A5F
:1008B2000079081209807FE87E031209CD7B007A55
:1008C200007908120A137FF47E011209CDE4F51CA7
:1008D200F51D800F7408251DF8A620051DE51D7065
:0C08E20002051C7408251DF8E4F680B126
:03000000020B1BD5
:0C0B1B00787FE4F6D8FD75812B0208827B
:10080000BB010CE58229F582E5833AF583E02250AD
:1008100006E92582F8E622BBFE06E92582F8E222F7
:0D082000E58229F582E5833AF583E4932211
:10082D00BC000BBE0029EF8DF084FFADF022E4CCAF
:10083D00F875F008EF2FFFEE33FEEC33FCEE9DEC78
:10084D00984005FCEE9DFE0FD5F0E9E4CEFD22EDBE
:10085D00F8F5F0EE8420D21CFEADF075F008EF2F08
:10086D00FFED33FD4007985006D5F0F222C398FDF9
:05087D000FD5F0EA2296
:00000001FF
