:030000000209C82A
:0C09C800787FE4F6D8FD75811A020A0F52
:030B3F004C530014
:030B3B000117009F
:100AAC00E4FDFCC3ED9FEC9E5015E4FBFA0BBB0080
:0F0ABC00010AEB64644A70F50DBD00010C80E483
:010ACB002208
:0C0B1B00758920759850758DFDD28E22D2
:0A0B2700D2A08F993099FDC29922E7
:090B3100C2A03098FDAF99C298F2
:010B3A002298
:060A86008B188A19891A81
:100A8C00D2A0E4FDFCAB18AA19A91A8D828C831292
:0F0A9C000800FF600A120B270DBD00010C80E659
:010AAB002228
:100B0A007F0D120B277F0A7E00120ACC7F0A020B86
:010B1A0027B3
:100ACC00E4FDFCC3ED9FEC9E5015E4FBFA0BBB0060
:0F0ADC00010AEB64644A70F50DBD00010C80E463
:010AEB0022E8
:03002300020AECE2
:100AEC00C0E0C0D075D000C00030980B740825173A
:0E0AFC00F8A699C2980517D000D0D0D0E032ED
:100A5400D2A0120B1BD2AFD2ACE4F517E51760FCA1
:100A64007FD07E07120AAC74082517F8E4F67808DC
:100A74007C00FD7BFF7A0B793F1209ABEF7002C259
:020A8400A722A7
:1009D400020A54E493A3F8E493A34003F68001F2DB
:1009E40008DFF48029E493A3F85407240CC8C33324
:1009F400C4540F4420C8834004F456800146F6DFF3
:100A0400E4800B0102040810204080900B3BE47E3C
:100A1400019360BCA3FF543F30E509541FFEE493E7
:100A2400A360010ECF54C025E060A840B8E493A3AE
:100A3400FAE493A3F8E493A3C8C582C8CAC583CAD9
:100A4400F0A3C8C582C8CAC583CADFE9DEE780BE91
:010B3E0000B6
:10080000BB010CE58229F582E5833AF583E02250AD
:1008100006E92582F8E622BBFE06E92582F8E222F7
:0D082000E58229F582E5833AF583E4932211
:10082D00E3F5F009E208B5F06D606B80F3E3F5F0E8
:10083D0009E608B5F060605E80F387F009E608B55B
:10084D00F054605280F487F009E208B5F048604634
:10085D0080F488828C8387F009E0A3B5F038603688
:10086D0080F488828C8387F009E493A3B5F0276028
:10087D002580F388828C83E3F5F009E0A3B5F016AB
:10088D00601480F388828C83E3F5F009E493A3B5BB
:10089D00F004600280F2020958808580E7808E8026
:1008AD00D2803C8015806C807E809B80B5808B8053
:1008BD00A1804F8070803A02096489828A83ECFAA4
:1008CD00E493F5F0A3C8C582C8CCC583CCE493A34B
:1008DD00C8C582C8CCC583CCB5F070606E80E18987
:1008ED00828A83E493F5F0A3E208B5F05E605C8044
:1008FD00F289828A83E0F5F0A3E608B5F04D604BEE
:10090D0080F389828A83E0F5F0A3E208B5F03C60BC
:10091D003A80F389828A83E493F5F0A3E608B5F073
:10092D002A602880F2805389828A83ECFAE493F559
:10093D00F0A3C8C582C8CCC583CCE0A3C8C582C806
:10094D00CCC583CCB5F004600280E27FFFB5F00228
:10095D000F2240027F012289828A83ECFAE0F5F0B2
:10096D00A3C8C582C8CCC583CCE0A3C8C582C8CCFA
:10097D00C583CCB5F0D560D380E389828A83ECFA48
:10098D00E0F5F0A3C8C582C8CCC583CCE493A3C859
:10099D00C582C8CCC583CCB5F0B160AF80E288F01C
:1009AD00ED2402B4040050A3F582EB2402B404003C
:0B09BD00509923234582239008A67365
:00000001FF
