:090AFE00493243205445535400D1
:0609B200D2937F037E00DA
:1009B800E4FDFCC3ED9FEC9E5015E4FBFA0BBB0075
:0F09C800010AEB64644A70F50DBD00010C80E478
:0109D70022FD
:100A61007F02120A7F7F28120A7F7F0E120A7F7F80
:0E0A710006120A7F7F01120A7F7F0C020A7FA5
:100A7F00A907E954F0F590C2921209B2C293E9C4E2
:0E0A8F0054F0F590C292D2931209B8C293228D
:100A9D00A907E954F0F590D2921209B2C293E9C4B4
:0E0AAD0054F0F590D292D2931209B8C293225F
:06096B008B088A09890ACD
:10097100E4F50BF50CAB08AA09A90A850C82850BD5
:1009810083120800602AE50C6410450B70057FC0D6
:10099100120A7FAB08AA09A90A850C82850B83126A
:1009A1000800FF120A9D050CE50C70C9050B80C5F6
:0109B1002223
:0408D900AB07AA06B9
:1008DD007C007D0A12082D8C088D097C007D0AAFE5
:1008ED0003AE0212082DAA06AB077C007D0A120882
:1008FD002D8D82AE02AF037C007D0A12082DEF24F0
:10090D0030FF120A9DE5822430FF120A9DE509246D
:05091D0030FF020A9DFD
:0C0AD0007F03120922EF543FF50DFF22B6
:1009FE00E4FD7F07120A287FF47E01120A217FF49C
:100A0E007E011209B87D3F7F08120A287FF47E010D
:030A1E000209B812
:100ABB00E4FD7F07120A287FC87E00120A217FC837
:050ACB007E000209B8E5
:070A21001209B87D017F07F7
:100A28008F088D09120AE87FA61209D8AF081209A3
:090A3800D8AF091209D8020AF333
:020922008F083C
:10092400120AE87FA61209D8AF081209D800120AE1
:10093400E87FA71209D8E4F509D2B7FFC2B60000D0
:10094400D2B6A2B7E4334209EFD394065006E509C0
:1009540025E0F5090FBF08E4C2B67F647E00120AE1
:0609640041120AF3AF0985
:01096A00226A
:0B0AE800D2B6D2B70000C2B7C2B622DF
:1009D800E4FEEF54807004C2B78002D2B7D2B600EA
:1009E80000C2B6EF25E0FF0EBE08E7D2B70000D27E
:0509F800B60000C2B6CC
:0109FD0022D7
:0B0AF300C2B7D2B60000D2B7C2B622D4
:100A4100E4FDFCD3ED9FEC9E5015E4FBFA0BBB00DB
:0F0A5100010AEB64FB4A70F50DBD00010C80E457
:010A60002273
:10088200120A617F01120A7F7F84120A7F7BFF7A3C
:100892000A79FE12096B7FC87E001209B81209FE9E
:1008A2007F01120A7F120AD08F0D7F0A7E00120981
:1008B200B87F80120A7FAF0DEF3395E0FE1208D9A0
:1008C2007F647E001209B87F2C0E1209B87F0112D4
:0708D2000A7F120ABB80CE71
:03000000020ADC15
:0C0ADC00787FE4F6D8FD75810D020882D9
:10080000BB010CE58229F582E5833AF583E02250AD
:1008100006E92582F8E622BBFE06E92582F8E222F7
:0D082000E58229F582E5833AF583E4932211
:10082D00BC000BBE0029EF8DF084FFADF022E4CCAF
:10083D00F875F008EF2FFFEE33FEEC33FCEE9DEC78
:10084D00984005FCEE9DFE0FD5F0E9E4CEFD22EDBE
:10085D00F8F5F0EE8420D21CFEADF075F008EF2F08
:10086D00FFED33FD4007985006D5F0F222C398FDF9
:05087D000FD5F0EA2296
:00000001FF
