:03000000020B747C
:0C0B7400787FE4F6D8FD75814D020BBBC4
:100C000057454C434F4D4500494E534552542043A0
:100C100041524400436172642054657374696E6785
:100C20002E2E00456E7465722070617373776F723B
:100C3000643A00414141004341524420414343450D
:100C4000505445442E2E0052454144203430203526
:100C50000052454D4F564520434152440043617276
:100C6000642052656D6F766564004361726420454F
:100C700072726F7200526520496E73657274204300
:040C80006172640039
:030E380001460070
:040D3A007FE87E03CD
:100D3E00E4FDFCC3ED9FEC9E5015E4FBFA0BBB00EB
:0F0D4E00010AEB64644A70F50DBD00010C80E4EE
:010D5D002273
:100DEA007F02120D5E7F28120D5E7F0E120D5E7F4E
:0E0DFA0006120D5E7F01120D5E7F0C020D5E73
:100D5E00A907E954F0F590C292D2937F037E001258
:100D6E000D3EC293E9C454F0F590C292D293120D87
:040D7E003EC29322BC
:100D8200A907E954F0F590D292D2937F037E001224
:100D92000D3EC293E9C454F0F590D292D293120D53
:040DA2003EC2932298
:060CCD008B478A488949AB
:100CD300E4F54AF54BAB47AA48A949854B82854AB7
:100CE30083120800602AE54B6410454A70057FC0F3
:100CF300120D5EAB47AA48A949854B82854A8312E8
:100D03000800FF120D82054BE54B70C9054A80C5EB
:010D130022BD
:040C8400AB07AA060A
:100C88007C007D0A12082D8C4C8D4D7C007D0AAFAE
:100C980003AE0212082DAA06AB077C007D0A1208D3
:100CA8002D8D82AE02AF037C007D0A12082DEF2441
:100CB80030FF120D82E5822430FF120D82E54D24AB
:050CC80030FF020D8267
:0F0E1900758920758780759850758DFDD28E2252
:080E28008F993099FDC2992257
:070E30003098FDAF99C29854
:010E37002298
:060DA6008B478A488949D1
:100DAC00E4FDFCAB47AA48A9498D828C831208004C
:0D0DBC00FF600A120E280DBD00010C80E63C
:010DC9002207
:100E08007F0D120E287F0A7E00120DCA7F0A020E7D
:010E180028B1
:100DCA00E4FDFCC3ED9FEC9E5015E4FBFA0BBB005F
:0F0DDA00010AEB64644A70F50DBD00010C80E462
:010DE90022E7
:03002300020D14B7
:100D1400C0E0C0D075D000C00030981174082546DA
:100D2400F8A69974082546F8E6F53A0546C298D01F
:060D340000D0D0D0E03237
:100A1D00120DEA7F327E00120D3E120E19120D3E9E
:100A2D007F85120D5E7BFF7A0C7900120CCD7FF461
:100A3D007E01020B6D7F01120D5E7BFF7A0C790832
:100A4D00120CCDD2AFD2ACE4F546E54660FC120DEA
:100A5D003A1546154674082546F8E4F6F5467F0125
:100A6D00120D5E7BFF7A0C7914120CCD7FD07E07B0
:100A7D00120D3E78087C007D007BFF7A0C792312E5
:100A8D000A00EF6003020B46F5467BFF7A0C7933C3
:100A9D00120DA6120E08E54660FC7FDC7E05120DD8
:100AAD003E7F01120D5E7BFF7A0C7937120CCD1251
:100ABD000D3AE4F5467BFF7A0C7947120DA6120E1E
:100ACD0008E54660FC7FDC7E05120D3E1546154699
:100ADD0074082546F8E4F67FF47E01120D3E7FC0C2
:100AED00120D5E7B007A007908120CCD7FD07E0747
:100AFD00120D3E120D3E7F01120D5E7F80120D5EB6
:100B0D007BFF7A0C7951120CCD7FD07E07120D3EF2
:100B1D00E4F546E54660FC120D3A15461546740897
:100B2D002546F8E4F678087C00FD7BFF7A0C795DAC
:100B3D00120A00EF7030020A427F01120D5E7BFF38
:100B4D007A0C796A120CCD7FC0120D5E7BFF7A0C88
:100B5D007975120CCDE4F546E54660FC7FD07E0735
:060B6D00120D3E020A42D7
:010B7300225F
:100B8000020A1DE493A3F8E493A34003F68001F264
:100B900008DFF48029E493A3F85407240CC8C33376
:100BA000C4540F4420C8834004F456800146F6DF45
:100BB000E4800B0102040810204080900E38E47E8F
:100BC000019360BCA3FF543F30E509541FFEE4933A
:100BD000A360010ECF54C025E060A840B8E493A301
:100BE000FAE493A3F8E493A3C8C582C8CAC583CA2C
:100BF000F0A3C8C582C8CAC583CADFE9DEE780BEE4
:010E3B0000B6
:10080000BB010CE58229F582E5833AF583E02250AD
:1008100006E92582F8E622BBFE06E92582F8E222F7
:0D082000E58229F582E5833AF583E4932211
:10082D00BC000BBE0029EF8DF084FFADF022E4CCAF
:10083D00F875F008EF2FFFEE33FEEC33FCEE9DEC78
:10084D00984005FCEE9DFE0FD5F0E9E4CEFD22EDBE
:10085D00F8F5F0EE8420D21CFEADF075F008EF2F08
:10086D00FFED33FD4007985006D5F0F222C398FDF9
:05087D000FD5F0EA2296
:10088200E3F5F009E208B5F06D606B80F3E3F5F093
:1008920009E608B5F060605E80F387F009E608B506
:1008A200F054605280F487F009E208B5F0486046DF
:1008B20080F488828C8387F009E0A3B5F038603633
:1008C20080F488828C8387F009E493A3B5F02760D3
:1008D2002580F388828C83E3F5F009E0A3B5F01656
:1008E200601480F388828C83E3F5F009E493A3B566
:1008F200F004600280F20209AD808580E7808E807C
:10090200D2803C8015806C807E809B80B5808B80FD
:10091200A1804F8070803A0209B989828A83ECFAF9
:10092200E493F5F0A3C8C582C8CCC583CCE493A3F5
:10093200C8C582C8CCC583CCB5F070606E80E18931
:10094200828A83E493F5F0A3E208B5F05E605C80EE
:10095200F289828A83E0F5F0A3E608B5F04D604B98
:1009620080F389828A83E0F5F0A3E208B5F03C6067
:100972003A80F389828A83E493F5F0A3E608B5F01E
:100982002A602880F2805389828A83ECFAE493F504
:10099200F0A3C8C582C8CCC583CCE0A3C8C582C8B1
:1009A200CCC583CCB5F004600280E27FFFB5F002D3
:1009B2000F2240027F012289828A83ECFAE0F5F05D
:1009C200A3C8C582C8CCC583CCE0A3C8C582C8CCA5
:1009D200C583CCB5F0D560D380E389828A83ECFAF3
:1009E200E0F5F0A3C8C582C8CCC583CCE493A3C804
:1009F200C582C8CCC583CCB5F0B160AF80E288F0C7
:100A0200ED2402B4040050A3F582EB2402B40400E6
:0B0A1200509923234582239008FB73BA
:00000001FF
