:03000000020BFDF3
:0C0BFD00787FE4F6D8FD758157020C44A7
:100B660057454C434F4D4500494E5345525420433B
:100B760041524400436172642054657374696E6720
:100B86002E2E00456E7465722070617373776F72D6
:100B9600643A0041414100434152442041434345A8
:100BA600505445442E2E00524541442035302031C4
:100BB60000434152442041004341524420420055E3
:100BC6004E415554484F52495A45440052656D6F3F
:100BD600766520596F7572204361726400436172B5
:100BE60064204572726F7200526520496E73657299
:070BF60074204361726400EA
:0B0E3900014A00023C0000020800001B
:100DAB007F02120E097F02120E097F28120E097F95
:100DBB0028120E097F0E120E097F06120E097F01F3
:030DCB00020E090C
:100E09008F52E552120D58C293E552C4120D58C2C1
:020E1900932222
:030D84002430FF19
:100D87008F52E55254F0F590D292120D5EC293E560
:100D970052C454F0F590D292120D5EC2937F037E37
:040DA70000020D64D5
:060CD9008B4D8A4E894F8D
:100CDF00E4F551F550AB4DAA4EA94F85508275835F
:100CEF000012080060300551E550B410057FC012A6
:100CFF000E09E550B420087F01120E09E4F551AB3F
:100D0F004DAA4EA94F855082758300120800FF121D
:060D1F000D87055080BFA6
:010D250022AB
:0C0D580054F0F590C292D2937F037E000D
:100D6400E4FDFCC3ED9FEC9E5015E4FBFA0BBB00C5
:0F0D7400010AEB64C84A70F50DBD00010C80E464
:010D8300224D
:100DF100EF54F0C4540FFEEF540FF557EE120D846B
:080E0100E5572430FF020D87C4
:0F0E1B00758920758780758DFD759850D28E2250
:060DCE008B4D8A4E894F97
:100DD400E4FFAB4DAA4EA94F8F8275830012080021
:0C0DE400600AF5993099FDC2990F80E675
:010DF00022E0
:070E2A007F0D120E317F0A5B
:080E31008F993099FDC299224E
:040C8900AB07AA0605
:100C8D007C007D0A12082D8F828E83AE02AF037C0D
:100C9D00007D0A12082D8C558D567C007D0AAF8281
:100CAD00AE8312082DAB07AE83AF827C007D0A1296
:100CBD00082D8C538D54AF03EF120D84E554243061
:0C0CCD00FF120D87E5562430FF020D8752
:03002300020D26A5
:100D2600C0E0C0D075D000C00030981FE599640DB2
:100D36006017E599640A6011740A254AF8A6997441
:100D46000A254AF8E6F53E054AC298D000D0D0D02A
:020D5600E03289
:100A1D00120DAB7F327E00120D64120E1B120D648F
:100A2D007F85120E097BFF7A0B7966120CD97F0137
:100A3D00120E097BFF7A0B796E120CD9D2AFD2ACA4
:100A4D00E4F54AE54A60FC7FE87E03120D64740A02
:100A5D00254AF8E4F6F54A7F01120E097BFF7A0B61
:100A6D00797A120CD97FD07E07120D64780A7C003A
:100A7D007D007BFF7A0B7989120A00EF6003020B70
:100A8D0039F54A7BFF7A0B7999120DCE120E2AE5B4
:100A9D004A60FC7FDC7E05120D647F01120E097B1E
:100AAD00FF7A0B799D120CD97FE87E03120D64E459
:100ABD00F54A7BFF7A0B79AD120DCE120E2AE4F5B5
:100ACD004AE54A60FC7FDC7E05120D64740A254AF6
:100ADD00F8E4F6E53EB4410D7F01120E097BFF7A75
:100AED000B79B7801BE53E7F01B4420B120E097BDB
:100AFD00FF7A0B79BE8009120E097BFF7A0B79C53F
:100B0D00120CD97FE87E03120D647FC0120E097B93
:100B1D00FF7A0B79D2120CD9E4F54AE54A60FC7FD5
:100B2D00E87E03120D64E4F54A020A3B7F01120EC2
:100B3D00097BFF7A0B79E3120CD97FC0120E097B6A
:100B4D00FF7A0B79EE120CD9E4F54AE54A60FC7F89
:090B5D00D07E07120D64020A3B70
:100C0900020A1DE493A3F8E493A34003F68001F2DA
:100C190008DFF48029E493A3F85407240CC8C333EC
:100C2900C4540F4420C8834004F456800146F6DFBB
:100C3900E4800B0102040810204080900E39E47E04
:100C4900019360BCA3FF543F30E509541FFEE493B0
:100C5900A360010ECF54C025E060A840B8E493A377
:100C6900FAE493A3F8E493A3C8C582C8CAC583CAA2
:100C7900F0A3C8C582C8CAC583CADFE9DEE780BE5A
:010E440000AD
:10080000BB010CE58229F582E5833AF583E02250AD
:1008100006E92582F8E622BBFE06E92582F8E222F7
:0D082000E58229F582E5833AF583E4932211
:10082D00BC000BBE0029EF8DF084FFADF022E4CCAF
:10083D00F875F008EF2FFFEE33FEEC33FCEE9DEC78
:10084D00984005FCEE9DFE0FD5F0E9E4CEFD22EDBE
:10085D00F8F5F0EE8420D21CFEADF075F008EF2F08
:10086D00FFED33FD4007985006D5F0F222C398FDF9
:05087D000FD5F0EA2296
:10088200E3F5F009E208B5F06D606B80F3E3F5F093
:1008920009E608B5F060605E80F387F009E608B506
:1008A200F054605280F487F009E208B5F0486046DF
:1008B20080F488828C8387F009E0A3B5F038603633
:1008C20080F488828C8387F009E493A3B5F02760D3
:1008D2002580F388828C83E3F5F009E0A3B5F01656
:1008E200601480F388828C83E3F5F009E493A3B566
:1008F200F004600280F20209AD808580E7808E807C
:10090200D2803C8015806C807E809B80B5808B80FD
:10091200A1804F8070803A0209B989828A83ECFAF9
:10092200E493F5F0A3C8C582C8CCC583CCE493A3F5
:10093200C8C582C8CCC583CCB5F070606E80E18931
:10094200828A83E493F5F0A3E208B5F05E605C80EE
:10095200F289828A83E0F5F0A3E608B5F04D604B98
:1009620080F389828A83E0F5F0A3E208B5F03C6067
:100972003A80F389828A83E493F5F0A3E608B5F01E
:100982002A602880F2805389828A83ECFAE493F504
:10099200F0A3C8C582C8CCC583CCE0A3C8C582C8B1
:1009A200CCC583CCB5F004600280E27FFFB5F002D3
:1009B2000F2240027F012289828A83ECFAE0F5F05D
:1009C200A3C8C582C8CCC583CCE0A3C8C582C8CCA5
:1009D200C583CCB5F0D560D380E389828A83ECFAF3
:1009E200E0F5F0A3C8C582C8CCC583CCE493A3C804
:1009F200C582C8CCC583CCB5F0B160AF80E288F0C7
:100A0200ED2402B4040050A3F582EB2402B40400E6
:0B0A1200509923234582239008FB73BA
:00000001FF
