:040941007FF47E01C0
:10094500E4FDFCC3ED9FEC9E5015E4FBFA0BBB00E8
:0F095500010AEB64644A70F50DBD00010C80E4EB
:010964002270
:04080000AB07AA0692
:100804007C007D0A1208EC8D828C837C007D0AAF0B
:1008140003AE021208ECAA06AB077C007D0A12089C
:10082400EC8C0E8D0F7C007D0AAF03AE021208EC37
:10083400AA06AB077C007D0A1208EC8C0C8D0D7C9B
:10084400007D0AAF03AE021208ECAA06AB077C00D7
:100854007D0A1208EC8C0A8D0BAF82AE83120896C7
:10086400D2B4120941C2B4AF0FAE0E120896D2B57B
:10087400120941C2B5AF0DAE0C120896D2B61209D8
:1008840041C2B6AF0BAE0A120896D2B7120941C2E2
:01089400B7AC
:010895002240
:10089600EE7052EFB40A00504C9008A6F828287360
:1008A6000208C40208C80208CC0208D00208D40212
:1008B60008D80208DC0208E00208E40208E875A08D
:1008C600C02275A0F92275A0A42275A0B02275A039
:1008D600992275A0922275A0822275A0F82275A091
:0608E600802275A098229B
:10096500E4F508F50920B0FD0509E509700205085B
:0F097500FFAE081208007FC87E0012094580E619
:030000000209846E
:0C098400787FE4F6D8FD75810F0209654C
:1008EC00BC000BBE0029EF8DF084FFADF022E4CCF0
:1008FC00F875F008EF2FFFEE33FEEC33FCEE9DECB9
:10090C00984005FCEE9DFE0FD5F0E9E4CEFD22EDFE
:10091C00F8F5F0EE8420D21CFEADF075F008EF2F48
:10092C00FFED33FD4007985006D5F0F222C398FD39
:05093C000FD5F0EA22D6
:00000001FF
