:1009DF0052454C415920544553540052454C4159AE
:0E09EF00204F4E0052454C4159204F464600C5
:040955007FC87E00D9
:10095900E4FDFCC3ED9FEC9E5015E4FBFA0BBB00D4
:0F096900010AEB64644A70F50DBD00010C80E4D7
:01097800225C
:1009C1007F021209797F281209797F0E1209797F36
:0E09D100061209797F011209797F0C0209795B
:10097900A907E954F0F590C292D2937F037E001241
:100989000959C293E9C454F0F590C292D29312095D
:0409990059C293228A
:10099D00A907E954F0F590D292D2937F037E00120D
:1009AD000959C293E9C454F0F590D292D293120929
:0409BD0059C2932266
:0608CB008B088A09890A6E
:1008D100E4F50BF50CAB08AA09A90A850C82850B76
:1008E10083120800602AE50C6410450B70057FC077
:1008F100120979AB08AA09A90A850C82850B831212
:100901000800FF12099D050CE50C70C9050B80C597
:0109110022C3
:04088200AB07AA0610
:100886007C007D0A12082D8C0D8D0E7C007D0AAF32
:1008960003AE0212082DAA06AB077C007D0A1208D9
:1008A6002D8D82AE02AF037C007D0A12082DEF2447
:1008B60030FF12099DE5822430FF12099DE50E24C2
:0508C60030FF02099D56
:10091200C2A01209C17F821209797BFF7A0979DFAD
:100922001208CB12095520A7157F011209797BFF06
:100932007A0979EA1208CB120955D2A080E87F0120
:100942001209797BFF7A0979F31208CB120955C291
:03095200A080D3AF
:030000000209FDF5
:0C09FD00787FE4F6D8FD75810E02091227
:10080000BB010CE58229F582E5833AF583E02250AD
:1008100006E92582F8E622BBFE06E92582F8E222F7
:0D082000E58229F582E5833AF583E4932211
:10082D00BC000BBE0029EF8DF084FFADF022E4CCAF
:10083D00F875F008EF2FFFEE33FEEC33FCEE9DEC78
:10084D00984005FCEE9DFE0FD5F0E9E4CEFD22EDBE
:10085D00F8F5F0EE8420D21CFEADF075F008EF2F08
:10086D00FFED33FD4007985006D5F0F222C398FDF9
:05087D000FD5F0EA2296
:00000001FF
