:1009E80055415254205445535400464F5257415292
:1009F80044004241434B57415244004C4546540041
:0B0A080052494748540053544F50001F
:040A13007FC87E001A
:100A1700E4FDFCC3ED9FEC9E5015E4FBFA0BBB0015
:0F0A2700010AEB64644A70F50DBD00010C80E418
:010A3600229D
:100AC3007F02120A377F28120A377F0E120A377FF6
:0E0AD30006120A377F01120A377F0C020A371B
:100A3700A907E954F0F590C292D2937F037E001282
:100A47000A17C293E9C454F0F590C292D293120ADE
:040A570017C293220D
:100A5B00A907E954F0F590D292D2937F037E00124E
:100A6B000A17C293E9C454F0F590D292D293120AAA
:040A7B0017C29322E9
:0609A1008B098A0A890B94
:1009A700E4F50CF50DAB09AA0AA90B850D82850C98
:1009B700831208D6602AE50D6410450C70057FC0C8
:1009C700120A37AB09AA0AA90B850D82850C831277
:1009D70008D6FF120A5B050DE50D70C9050C80C529
:0109E70022ED
:04095800AB07AA0639
:10095C007C007D0A1209038C0E8D0F7C007D0AAF82
:10096C0003AE02120903AA06AB077C007D0A12092A
:10097C00038D82AE02AF037C007D0A120903EF24C3
:10098C0030FF120A5BE5822430FF120A5BE50F246C
:05099C0030FF020A5BC0
:0C0AF200758920759850758DFDD28E22FC
:080B0A008F993099FDC2992278
:070B12003098FDAF99C29875
:010B190022B9
:060A7F008B098A0A890BB5
:100A8500E4FDFCAB09AA0AA90B8D828C831208D65A
:0D0A9500FF600A120B0A0DBD00010C80E687
:010AA2002231
:100AE1007F0D120B0A7F0A7E00120AA37F0A020BF6
:010AF1000AFA
:100AA300E4FDFCC3ED9FEC9E5015E4FBFA0BBB0089
:0F0AB300010AEB64644A70F50DBD00010C80E48C
:010AC2002211
:10080000120AC37F85120A377BFF7A0979E8120939
:10081000A17F647E00120A17120AF2120B128F08CF
:10082000E508646170227F01120A377BFF7A09793B
:10083000F21209A1120A137BFF7A0979F2120A7FD8
:10084000120AE1120A1380D3E508646270197F016D
:10085000120A377BFF7A0979FA1209A1120A137B6F
:10086000FF7A0979FA803CE508646370197F011208
:100870000A377BFF7A0A79031209A1120A137BFF58
:100880007A0A7903801DE508646470257F01120AE5
:10089000377BFF7A0A79081209A1120A137BFF7AC3
:1008A0000A7908120A7F7FC8120A17120AE10208A1
:1008B0001B7F01120A377BFF7A0A790E1209A112F7
:1008C0000A137BFF7A0A790E120A7F7FC8120A1771
:0608D000120AE102081B00
:03000000020AFEF3
:0C0AFE00787FE4F6D8FD75810F02080037
:1008D600BB010CE58229F582E5833AF583E02250D7
:1008E60006E92582F8E622BBFE06E92582F8E22221
:0D08F600E58229F582E5833AF583E493223B
:10090300BC000BBE0029EF8DF084FFADF022E4CCD8
:10091300F875F008EF2FFFEE33FEEC33FCEE9DECA1
:10092300984005FCEE9DFE0FD5F0E9E4CEFD22EDE7
:10093300F8F5F0EE8420D21CFEADF075F008EF2F31
:10094300FFED33FD4007985006D5F0F222C398FD22
:050953000FD5F0EA22BF
:00000001FF
