:10097C0057454C434F4D452032204F52414E474531
:10098C0000205245534541524348204C414253208C
:01099C00005A
:06095600D2937F037E0036
:10095C00E4FDFCC3ED9FEC9E5015E4FBFA0BBB00D1
:0F096C00010AEB64644A70F50DBD00010C80E4D4
:01097B002259
:10099D007F021209BB7F281209BB7F0E1209BB7F94
:0E09AD00061209BB7F011209BB7F0C0209BBB9
:1009BB00A907E954F0F590C292120956C293E9C403
:0E09CB0054F0F590C292D29312095CC29322AE
:1009D900A907E954F0F590D292120956C293E9C4D5
:0E09E90054F0F590D292D29312095CC2932280
:0608CB008B088A09890A6E
:1008D100E4F50BF50CAB08AA09A90A850C82850B76
:1008E10083120800602AE50C6410450B70057FC077
:1008F1001209BBAB08AA09A90A850C82850B8312D0
:100901000800FF1209D9050CE50C70C9050B80C55B
:0109110022C3
:04088200AB07AA0610
:100886007C007D0A12082D8C0D8D0E7C007D0AAF32
:1008960003AE0212082DAA06AB077C007D0A1208D9
:1008A6002D8D82AE02AF037C007D0A12082DEF2447
:1008B60030FF1209D9E5822430FF1209D9E50E244A
:0508C60030FF0209D91A
:1009120012099D7F011209BB7F801209BB7BFF7AFE
:1009220009797C1208CB7FE87E0312095C7FC11231
:1009320009BB7BFF7A09798D1208CB7FE87E03120F
:10094200095CE4F5A07FF47E0112095C75A0FF1238
:04095200095C80EECE
:030000000209F7FB
:0C09F700787FE4F6D8FD75810E0209122D
:10080000BB010CE58229F582E5833AF583E02250AD
:1008100006E92582F8E622BBFE06E92582F8E222F7
:0D082000E58229F582E5833AF583E4932211
:10082D00BC000BBE0029EF8DF084FFADF022E4CCAF
:10083D00F875F008EF2FFFEE33FEEC33FCEE9DEC78
:10084D00984005FCEE9DFE0FD5F0E9E4CEFD22EDBE
:10085D00F8F5F0EE8420D21CFEADF075F008EF2F08
:10086D00FFED33FD4007985006D5F0F222C398FDF9
:05087D000FD5F0EA2296
:00000001FF
